:020000040800F2
:10000000081900200D020008C14E00087D3E0008BE
:10001000E544000861030008895E00080000000054
:10002000000000000000000000000000F150000887
:100030009907000800000000C94E0008F3500008AE
:1000400027020008270200082702000827020008EC
:1000500027020008270200082702000827020008DC
:1000600027020008270200082702000827020008CC
:1000700027020008270200082702000827020008BC
:10008000810300085D040008270200082702000819
:10009000270200082702000827020008270200089C
:1000A000270200082702000827020008270200088C
:1000B000270200082702000827020008270200087C
:1000C000270200082702000827020008270200086C
:1000D00027020008955B0008695C000827020008F9
:1000E000F507000827020008270200082702000879
:1000F000270200082702000827020008270200083C
:10010000270200082702000827020008270200082B
:100110000153000895540008270200082702000830
:10012000270200082702000827020008270200080B
:1001300027020008270200082702000827020008FB
:1001400027020008270200082702000827020008EB
:1001500027020008270200082702000827020008DB
:1001600027020008270200082702000827020008CB
:1001700027020008270200082702000800000000EC
:1001800027020008270200082702000827020008AB
:10019000270200082702000827020008270200089B
:1001A000270200082702000827020008270200088B
:1001B000270200082702000827020008270200087B
:1001C000270200082702000800000000270200089C
:1001D000270200082702000827020008270200085B
:1001E000270200082702000827020008270200084B
:1001F0002702000827020008DFF80CD000F07AF888
:10020000004800473362000808190020064880476C
:1002100006480047FEE7FEE7FEE7FEE7FEE7FEE7EB
:10022000FEE7FEE7FEE7FEE731520008F9010008AD
:100230002DE9F05F0546002092469B46884606461B
:10024000814640241BE0284641464746224600F0AE
:1002500041F853465A46C01A914110D311461846E8
:10026000224600F028F82D1A67EB01084F46224677
:100270000120002100F01FF817EB00094E41201E5D
:10028000A4F10104DFDC484631462A464346BDE876
:10029000F09FD2B201E000F8012B491EFBD270475B
:1002A0000022F6E710B513460A4604461946FFF742
:1002B000F0FF204610BD202A04DB203A00FA02F1AC
:1002C000002070479140C2F1200320FA03F3194344
:1002D00090407047202A04DB203A21FA02F00021E6
:1002E000704721FA02F3D040C2F120029140084346
:1002F00019467047064C074D06E0E06840F00103E0
:1003000094E8070098471034AC42F6D3FFF778FF23
:100310006C6200088C62000870B502210D4802F082
:10032000C7FA044601210B4802F0C2FA054654B947
:100330000120094908700949087001228102054815
:1003400002F0C6FA05E000224FF48061014802F095
:10035000BFFA70BD000002403500002036000020CA
:1003600000BFFEE710B504F0FFFD04F0AFFD034849
:10037000006840F004000149086010BD9CEF00E0F7
:1003800008B5304800683049884205D92E485438AD
:10039000006800F400601BE02A4800682B4988428E
:1003A00005D929485838006800F4006010E0254855
:1003B000006826496039884205D92448B838406821
:1003C00000F4006004E02148B838006800F40060E0
:1003D00090B31C4800681C49884204D9C8141A49C3
:1003E0004C39086019E0174800681849884204D958
:1003F000C8141549503908600FE0124800681349C5
:100400006039884204D9C8141049B839C86004E07A
:100410004FF400600D49B83988600A4800684068A8
:10042000C0F18200009007480068006800F40020D6
:1004300018B907480749086002E0074805490860FD
:1004400008BD0000C407002058640240B8600240A4
:10045000000000C024000020000100C010B50248C8
:1004600001F058FE10BD0000640700200146087826
:1004700010381823B0FBF3F20848805CC865032AE3
:1004800005D908686FF30900001D886503E0086856
:100490006FF309008865886D704700004A620008A4
:1004A000014600208A6A8B69CBB932B1012A0DD08E
:1004B000022A03D0032A10D10EE000BFCB6A03F05A
:1004C0008073B3F1807F00D1012007E0CB6AB3F1E4
:1004D000C07F00D1012001E000E000BF34E08B6963
:1004E000B3F5005F1AD132B1012A07D0022A03D036
:1004F000032A11D10AE000BF01200EE0CB6A03F00D
:100500008073B3F1807F00D1012006E0CB6AB3F1A4
:10051000C07F00D1012000E000BF15E032B1012A08
:1005200005D0022A04D0032A0CD103E000BF00BF8B
:10053000012008E0CB6A03F08073B3F1807F00D123
:10054000012000E000BF00BF704710B50468636081
:100550008468402C04D10468A2600468E16003E070
:100560000468A1600468E26010BD30B504682468C6
:1005700024F4802405682C60046863608468402C3F
:1005800004D10468A2600468E16003E00468A1602B
:100590000468E26030BD000010B586B00446142146
:1005A00001A8FFF77DFE00BF2448006840F002006C
:1005B000224908600846006800F00200009000BF71
:1005C00000BF002220211E4802F082F92020019065
:1005D0000120029000200390049001A9184802F025
:1005E0005BF818481849086008464460002181609B
:1005F000C16001610C214161002181614FF4004122
:10060000C1610021016200200F494862084603F0E1
:10061000F4FA20B100F01EF9012006B010BD00F080
:100620001FF800F08BF808480068806840F0C000B0
:100630000549096888600020EFE700003038024073
:1006400000040240001001406404002010B504467C
:1006500022462021014802F03BF910BD000402406F
:1006600008B500BF2F48006840F480002D4908609D
:100670000846006800F48000009000BF00BF2A48D0
:100680002A4908604FF00060486040212748816097
:100690000021C1604FF480610161002141618161ED
:1006A000C1614FF4003101620021416201F052FE4C
:1006B00008B100F0CFF800BF1C481D498866084605
:1006C0001A49886300BF184878381A4908604FF003
:1006D00000604860002117488160C1604FF480616C
:1006E0000161002141618161C1614FF440310162CA
:1006F0000021416201F02EFE08B100F0ABF800BF0E
:100700000C480B49C86608460A49886300BF006860
:1007100000F124014FF4C873074A064801F090FE27
:1007200008BD000030380240B8640240E4040020F4
:100730006404002044050020000500C010B5142109
:10074000074803F093FB064803F036FA04480068B4
:10075000006840F0806002490968086010BD000030
:100760006404002070B504460D460120FFF76EFFBB
:100770002A462146074804F00BFF00BF05480068E1
:10078000C069C0F380100028F8D00020FFF75EFF9A
:10079000002070BD640400207047000010B50446BE
:1007A0001248134908600846446000218160C16016
:1007B00001610C21416100218161C1610162002060
:1007C0000B494862084603F018FA08B100F042F8F5
:1007D00004F0F8FD04F0BCFE05480068806840F0B5
:1007E000C00003490968886010BD00000050004047
:1007F0002403002010B54FF4805001F03FFF4FF468
:10080000005001F03BFF10BD10B54FF480510D4872
:1008100002F04EF8044604B910BD01200A490870E0
:100820000A480068006820F001000849096808606B
:1008300007480068006820F0010005490968086061
:1008400000BFE9E7000402403400002064040020F7
:10085000E4060020704730B50246002300240868F3
:10086000012816D013686FF30E03D1E90105284360
:10087000CD6828430D6928434D6928438D69284375
:10088000CD6928430D6A28434D6A2843034313600A
:1008900019E0136823F4F843D1E9070528434D6AAA
:1008A0002843034354686FF30E04D1E9010528433C
:1008B000CD6828430D6928434D6928438D69284335
:1008C000044313605460002030BD18B50346002077
:1008D0000090D1E9000420438C68641E40EA441073
:1008E000CC6840EA4420009000981861002018BDB0
:1008F0000246106940EA4110106100207047000074
:1009000070B50346154600220024012D1FD09A68B9
:1009100002F070420868401E4E68761E40EA0616D5
:100920008868401E46EA0026C868401E46EA00362F
:10093000088A401E46EA0046888A401E46EA00565B
:10094000087E401E46EA006002439A6022E09A68F0
:1009500011480240C868401E0603888A401E46EAC5
:1009600000500243DC6804F070440868401E4E6882
:10097000761E40EA06168868401E46EA0026088A67
:10098000401E46EA0046087E401E46EA00600443D8
:100990009A60DC60002070BDFF0F0FFF38B5044681
:1009A0004FF0AA3000900949897901FB04F0042333
:1009B0006A46002104F064FA044989796143481CBD
:1009C00004236A46002104F05BFA38BDA808002021
:1009D0002DE9FC4704460D4600275DE04FF0000876
:1009E00020E001A82E490090B1F802904FEAE97189
:1009F00009EB91718B102A49897901FB04F02A4691
:100A0000002104F07FF826494888C11700EB917156
:100A1000BDF80420B2EBA10F00D007E008F10100FF
:100A20001FFA80F81E4880794045DADC00BF1C4878
:100A30008079404502D10020BDE8FC87204603F0C4
:100A400023FF064626B1394616A005F01FFA21E01D
:100A5000681CF8B10020019016E01149B1F802902D
:100A60004FEAE97109EB91718B100D498979BDF855
:100A7000042004FB01200022114604F0CFF9BDF848
:100A80000400401C80B2019005488079BDF8041034
:100A90008842E2DC781C87B2032F9FDB0120CBE782
:100AA000A80800206572726F7220657261736520FC
:100AB000626C6F636B3A25640D0A00002DE9FE4FEE
:100AC00081460F4692461D46002400200290804633
:100AD000019000263B488079B9FBF0F839488079CD
:100AE000B9FBF0F100FB1190019000BF404600F00F
:100AF000D1F8064633484089B04202D20120BDE811
:100B0000FE8F00243AE00198844221D305B32D489A
:100B10004088C01BA84205D22A484088C01B1FFA43
:100B200080FB01E01FFA85FB264ACDF800B09279E0
:100B300006FB0241234A927908FB024053463A469B
:100B400003F0D2FC02900027DA44A5EB0B050AE083
:100B50001C4A927906FB02411A4A927908FB02402C
:100B600003F0C6FD0290029830B13046FFF716FF41
:100B7000012000F029F8B9E7601C84B2114880799F
:100B8000A042C0DC0F488079A04219D1304600F065
:100B900097F9404603F078FE00240CE009484069CC
:100BA00030F81400404504D10649496921F8146021
:100BB00005E0601C84B203484089A042EEDC00BF1F
:100BC00000209CE7A8080020F8B505460026002470
:100BD00006E04FF6FF702E49496921F81400641CA5
:100BE0002B484089A042F4D800202949888100245C
:100BF0002EE02749897901FB04F004236A4600218D
:100C000003F0C8FF9DF80000FF2809D145B1204935
:100C100089796143481C01236A46002103F0BAFF29
:100C20009DF80000FF2812D19DF802009DF80310E6
:100C300000EB012616484089B04203D9144949699E
:100C400021F8164012488089401C11498881641C93
:100C50000F484089A042CCD800240BE00C484069E2
:100C600030F814000A494989884202DB0849CC81DE
:100C700004E0641C06484089A042EFD800BF044845
:100C8000C089642801DA0220F8BD0020FCE70000DA
:100C9000A808002070B50546002418484089401E69
:100CA00017490968884204D214484089401E1449F3
:100CB000086005F001011248006800F023F80446BE
:100CC000601C90B90D484089401E0D490968884252
:100CD0000BD90A484089401E0949086005F0010106
:100CE0000748006800F00EF80446601C10B94FF089
:100CF000FF3070BD024804602046FAE7A8080020D3
:100D000040000020F8B505460E4600200090002463
:100D10006C1C14E0601E00F00100B0420ED1611E98
:100D2000094A927901FB02F004236A46002103F08C
:100D300031FF0098401C08B9601EF8BD641E002CED
:100D4000E8D1601EF9E70000A80800200146002253
:100D50000648C089884202D24FF6FF7070470348A8
:100D6000406930F811201046F8E70000A80800207C
:100D70002DE9FF4F83B014469A460026002500BF98
:100D800097E04E48408890FBF4F04C4989794843FD
:100D900004992944B1FBF0F002900298FFF7D6FFC6
:100DA000834646484189594503D8012007B0BDE82C
:100DB000F08F4248408890FBF4F0404989794843DD
:100DC00004992944B1FBF0F200FB1210604301903A
:100DD0003A4841880198B0FBF1F0384989790BFB1A
:100DE0000108364841880198B0FBF1F201FB120975
:100DF00032484088A0EB0900B0FBF4F087B2AAEBC0
:100E00000500B84202D2AAEB050087B207FB04F046
:100E100083B21FFA89F14046039A03F063FD064648
:100E2000032E39D107FB04F083B21FFA89F1404643
:100E3000039A03F057FD0646032E2DD107FB04F35A
:100E40001FFA89F14046039AFFF738FE1B48807964
:100E5000B8FBF0F0311F0090FFF7BAFD06467EB9EF
:100E600016488079B8FBF0F000210090FFF7B0FD44
:100E7000064612488079B8FBF0F0009003F004FDBC
:100E80004EB10E488079B8FBF0F00090FFF786FD78
:100E90000120FFF799FE0026042E00D100260EB196
:100EA000022083E7039804FB07000390781E0544A3
:100EB0006D1C5545FFF465AF002077E7A8080020BA
:100EC00038B50446CC20009000250649897901FBFD
:100ED00004F001236A46194603F0D2FF054628466E
:100EE00038BD0000A80800202DE9FF4F85B014464A
:100EF00099464FF0000A0025681E029000BFAFE03F
:100F00005A48408890FBF4F058498979484306993B
:100F10002944B1FBF0F05649086008460068FFF725
:100F200015FF54490860514840890968884203D830
:100F3000012009B0BDE8F08F4C48408890FBF4F0E8
:100F40004A498979484306992944B1FBF0F200FBEC
:100F5000121000FB04FB45484088BBFBF0F14348FE
:100F60008079444A126802FB001003903F48408891
:100F7000BBFBF0F100FB11B83C484088A0EB080037
:100F800080B20490BDF8100090FBF4F080B20490A1
:100F9000A9EB050086B2BDF81000864201DBBDF862
:100FA000106006FB04F704A81FFA88F1C7F38F034B
:100FB0004FF0FF320090039803F0A4FD8246BAF18F
:100FC000000F01D00220B4E7BDF81000B0EB970F7E
:100FD00008D1BBB21FFA88F1059A039803F05CFEB2
:100FE000824601E04FF0010ABAF1000F0CD121490D
:100FF00002980968884207D01E480068FFF760FF22
:1010000082461C4800680290BAF1000F22D01748AF
:101010008079164949884843A0EB0B00B0FBF4F0F7
:1010200080B20490A9EB050086B2BDF8100086429C
:1010300001DBBDF8106006FB04F71FFA88F13B46A0
:10104000059A0398FFF73AFD8246BAF1000F01D0E6
:1010500003206EE7701E05440598384405906D1C0A
:101060004D45FFF44DAF002063E70000A8080020C5
:10107000380000203C00002000B587B0142102A8F1
:10108000FFF70EF900BF1448006840F04000124915
:1010900008600846006800F04000019000BF00BFF3
:1010A0004FF4C040029001200390022004900020E1
:1010B000059002A9094801F0EFFA00224FF400510F
:1010C000064801F005FC00224FF48041034801F07E
:1010D000FFFB07B000BD000030380240001802409E
:1010E00010B52DED028B02F0CBFEB0EE408A154814
:1010F00090ED000AB4EEC08AF1EE10FA0ADD01228A
:101100005103114801F0E4FB012291030E4801F064
:10111000DFFB13E00D4890ED000AB4EEC08AF1EE5B
:1011200010FA0BD200224FF40051074801F0D0FB17
:1011300000224FF48041044801F0CAFBBDEC028B51
:1011400010BD00002C0000200018024030000020DC
:101150002DE9F04704460E4617461D46DDF820806F
:101160004FF00009A068802804D14000606501208C
:10117000BDE8F08700BF94F83400012801D10220B7
:10118000F6E7012084F8340000BF94F83500012808
:1011900073D1022084F83500002060652068006863
:1011A00040F48020216808602068056143463A4683
:1011B00031462046FFF7C9F9FA49206888425DD9CF
:1011C000F9492068884201D1202052E0F549483988
:1011D0002068884201D120204BE0F349603120682B
:1011E000884201D1202044E0EE491831206888422D
:1011F00001D120203DE0EC4918312068884201D11E
:10120000C01436E0E74930392068884201D1C01463
:101210002FE0E54978312068884201D1C01428E0E8
:10122000E04930312068884201D1C01421E0DE4914
:1012300030312068884202D14FF4001019E0D949BA
:1012400018392068884202D14FF4001011E0D649C5
:1012500090312068884202D14FF4001009E0D14952
:1012600048312068884202D14FF4001001E04FF06D
:101270000060CC494C39086020E1EFE3CA49A8314D
:10128000206888425CD9C8492068884201D1202062
:1012900052E0C44948392068884201D120204BE0FF
:1012A000C14960312068884201D1202044E0BD4915
:1012B00018312068884201D120203DE0BA49183118
:1012C0002068884201D1C01436E0B6493039206820
:1012D000884201D1C0142FE0B34978312068884298
:1012E00001D1C01428E0AF4930312068884201D1D3
:1012F000C01421E0AC4930312068884202D14FF45B
:10130000001019E0A74918392068884202D14FF42B
:10131000001011E0A44990312068884202D14FF4B6
:10132000001009E09F4948312068884202D14FF4FB
:10133000001001E04FF000609A4950390860BDE0AC
:1013400099494831206888425CD997492068884289
:1013500001D1202052E0934948392068884201D1C8
:1013600020204BE0904960312068884201D1202044
:1013700044E08C4918312068884201D120203DE0AA
:10138000894918312068884201D1C01436E0854966
:1013900030392068884201D1C0142FE08249783169
:1013A0002068884201D1C01428E07E49303120688D
:1013B000884201D1C01421E07B4930312068884245
:1013C00002D14FF4001019E076491839206888429C
:1013D00002D14FF4001011E0734990312068884227
:1013E00002D14FF4001009E06E494831206888426C
:1013F00002D14FF4001001E04FF000606A4910394B
:10140000C8605BE068492068884201D1202052E032
:10141000644948392068884201D120204BE0624964
:1014200060312068884201D1202044E05D491831B4
:101430002068884201D120203DE05B4918312068B6
:10144000884201D1C01436E05649303920688842BC
:1014500001D1C0142FE0544978312068884201D16D
:10146000C01428E04F4930312068884201D1C014AF
:1014700021E04D4930312068884202D14FF40010FC
:1014800019E0484918392068884202D14FF4001009
:1014900011E0454990312068884202D14FF4001094
:1014A00009E0404948312068884202D14FF40010D9
:1014B00001E04FF000603C491039886039492068EC
:1014C00088425CD938492068884201D1102052E016
:1014D000344948392068884201D110204BE0324914
:1014E00060312068884201D1102044E02D49183134
:1014F0002068884201D110203DE02B491831206836
:10150000884201D1001536E02649303920688842EA
:1015100001D100152FE0244978312068884201D19B
:10152000001528E01F4930312068884201D100159C
:1015300021E01D4930312068884202D14FF48010EB
:1015400019E0184918392068884202D14FF48010F8
:1015500011E0154990312068884202D14FF4801083
:1015600009E0104948312068884202D14FF48010C8
:1015700001E04FF080600B494C39086020E10A49D6
:10158000A831206888425FD907492068884201D184
:10159000102055E0034948392068884206D11020C0
:1015A0004EE000005864024010600240F849206894
:1015B000884201D1102043E0F6492068884201D1D9
:1015C00010203DE0F24948392068884201D10015D9
:1015D00036E0F04948392068884201D100152FE0F3
:1015E000EB4918312068884201D1001528E0E9490B
:1015F00018312068884201D1001521E0E4493039D2
:101600002068884202D14FF4801019E0E149303956
:101610002068884202D14FF4801011E0DC4930315B
:101620002068884202D14FF4801009E0D949303156
:101630002068884202D14FF4801001E04FF08060B2
:10164000D44968390860BBE0D1491839206888421C
:101650005BD9CF4960392068884201D1102050E021
:10166000CC4960392068884201D1102049E0C8493E
:101670002068884201D1102043E0C6492068884292
:1016800001D110203DE0C24948392068884201D18B
:10169000001536E0BF4948392068884201D100155D
:1016A0002FE0BB4918312068884201D1001528E09D
:1016B000B84918312068884201D1001521E0B449A9
:1016C00030392068884202D14FF4801019E0B149C6
:1016D00030392068884202D14FF4801011E0AC49C3
:1016E00030312068884202D14FF4801009E0A949C6
:1016F00030312068884202D14FF4801001E04FF071
:101700008060A3497039C8605AE0A14960392068F7
:10171000884201D1102050E09E49603920688842FB
:1017200001D1102049E09A492068884201D1102057
:1017300043E098492068884201D110203DE0944957
:1017400048392068884201D1001536E0914948396E
:101750002068884201D100152FE08D49183120689A
:10176000884201D1001528E08A4918312068884252
:1017700001D1001521E0864930392068884202D124
:101780004FF4801019E0834930392068884202D133
:101790004FF4801011E07E4930312068884202D138
:1017A0004FF4801009E07B4930312068884202D133
:1017B0004FF4801001E04FF0806075497039886007
:1017C00074491839206888425BD9714960392068AA
:1017D000884201D1082050E06E4960392068884273
:1017E00001D1082049E06A492068884201D10820D7
:1017F00043E068492068884201D108203DE06449FF
:1018000048392068884201D1401536E0614948399D
:101810002068884201D140152FE05D4918312068C9
:10182000884201D1401528E05A4918312068884281
:1018300001D1401521E0564930392068884202D153
:101840004FF4002019E0534930392068884202D112
:101850004FF4002011E04E4930312068884202D117
:101860004FF4002009E04B4930312068884202D112
:101870004FF4002001E04FF00070464964390860E1
:101880001FE143494831206888425BD940496039AB
:101890002068884201D1082050E03E496039206824
:1018A000884201D1082049E039492068884201D1A5
:1018B000082043E037492068884201D108203DE0F4
:1018C000334948392068884201D1401536E0314912
:1018D00048392068884201D140152FE02C49183141
:1018E0002068884201D1401528E02A491831206833
:1018F000884201D1401521E02549303920688842CD
:1019000002D14FF4002019E0224930392068884282
:1019100002D14FF4002011E01D4930312068884287
:1019200002D14FF4002009E01A4930312068884282
:1019300002D14FF4002001E04FF0007015496839E2
:101940000860BEE012491839206888425DD9104904
:1019500060392068884201D1082052E00D49603981
:101960002068884201D108204BE00949206888425C
:1019700001D1082045E007492068884201D10820AC
:101980003FE0034948392068884205D1401538E0D6
:101990007060024070640240FA492068884201D1B8
:1019A00040152EE0F8492068884201D1401528E012
:1019B000F44960312068884201D1401521E0F249A4
:1019C00048392068884202D14FF4002019E0ED49DF
:1019D00018312068884202D14FF4002011E0EA4912
:1019E00018312068884202D14FF4002009E0E5490F
:1019F00078312068884202D14FF4002001E04FF096
:101A00000070E1498839C8605BE0DF4978392068B7
:101A1000884201D1082051E0DA491839206888420B
:101A200001D108204AE0D84918392068884201D1FC
:101A3000082043E0D34948312068884201D108207A
:101A40003CE0D14960392068884201D1401535E039
:101A5000CC492068884202D140152FE04CE3CA49A6
:101A60002068884201D1401528E0C64960312068CD
:101A7000884201D1401521E0C34948392068884295
:101A800002D14FF4002019E0BE4918312068884285
:101A900002D14FF4002011E0BB4918312068884280
:101AA00002D14FF4002009E0B6497831206888421D
:101AB00002D14FF4002001E04FF00070B2498839A4
:101AC0008860B0493031206888425BD9AE497839A6
:101AD0002068884201D1042050E0AA4918392068C2
:101AE000884201D1042049E0A7491839206888427A
:101AF00001D1042042E0A34948312068884201D145
:101B000004203BE0A04960392068884201D180155B
:101B100034E09C492068884201D180152EE09A4922
:101B20002068884201D1801528E0964960312068FC
:101B3000884201D1801521E09349483920688842C4
:101B400002D14FF4802019E08E4918312068884274
:101B500002D14FF4802011E08B491831206888426F
:101B600002D14FF4802009E086497831206888420C
:101B700002D14FF4802001E04FF0807081491C3980
:101B800008601EE180493031206888425BD97E4977
:101B900078392068884201D1042050E07949183909
:101BA0002068884201D1042049E07749183920682B
:101BB000884201D1042042E07249483120688842BD
:101BC00001D104203BE0704960392068884201D18E
:101BD000801534E06B492068884201D180152EE0E1
:101BE00069492068884201D1801528E06549603143
:101BF0002068884201D1801521E063494839206876
:101C0000884202D14FF4802019E05E4918312068E3
:101C1000884202D14FF4802011E05B4918312068DE
:101C2000884202D14FF4802009E05649783120687B
:101C3000884202D14FF4802001E04FF0807051497A
:101C400020390860BDE050493039206888425BD9AE
:101C50004D4978392068884201D1042050E0494933
:101C600018392068884201D1042049E046491839D2
:101C70002068884201D1042042E04249483120686E
:101C8000884201D104203BE03F4960392068884206
:101C900001D1801534E03B492068884201D180158C
:101CA0002EE039492068884201D1801528E0354965
:101CB00060312068884201D1801521E032494839DD
:101CC0002068884202D14FF4802019E02D49183154
:101CD0002068884202D14FF4802011E02A4918314F
:101CE0002068884202D14FF4802009E025497831EC
:101CF0002068884202D14FF4802001E04FF08070CC
:101D000021498839C8605CE01F49783920688842D9
:101D100001D1042052E01B4918392068884201D1C2
:101D200004204BE0184918392068884201D104206A
:101D300044E0144948312068884201D104203DE044
:101D4000114960392068884201D1801536E00D497B
:101D50002068884201D1801530E00B492068884214
:101D600001D180152AE0074960312068884201D1FD
:101D7000801523E0044948392068884206D14FF491
:101D800080201BE02864024088600240DF49206810
:101D9000884202D14FF4802010E0DD49206888425B
:101DA00002D14FF4802009E0D84960312068884290
:101DB00002D14FF4802001E04FF08070D449A03967
:101DC0008860D2491831206888425BD9D04990395F
:101DD0002068884201D1012050E0CC493039206888
:101DE000884201D1012049E0C94930392068884240
:101DF00001D1012042E0C54930312068884201D13B
:101E000001203BE0C24978392068884201D1402056
:101E100034E0BE4918392068884201D140202DE0C5
:101E2000BB4918392068884201D1402026E0B749D3
:101E300048312068884201D140201FE0B449603910
:101E40002068884202D14FF4803017E0AF49206803
:101E5000884202D14FF4803010E0AD4920688842BA
:101E600002D14FF4803009E0A849603120688842EF
:101E700002D14FF4803001E04FF48000A34934399F
:101E800008601CE1A2491831206888425BD9A0494A
:101E900090392068884201D1012050E09B493039B7
:101EA0002068884201D1012049E0994930392068F1
:101EB000884201D1012042E09449303120688842B3
:101EC00001D101203BE0924978392068884201D154
:101ED000402034E08D4918392068884201D14020E3
:101EE0002DE08B4918392068884201D1402026E036
:101EF000864948312068884201D140201FE084494A
:101F000060392068884202D14FF4803017E07F4961
:101F10002068884202D14FF4803010E07C4920686C
:101F2000884202D14FF4803009E07849603120685E
:101F3000884202D14FF4803001E04FF480007349B1
:101F400038390860BBE072494839206888425BD95B
:101F50006F4990392068884201D1012050E06B49D7
:101F600030392068884201D1012049E06849303980
:101F70002068884201D1012042E064493031206864
:101F8000884201D101203BE06149783920688842CC
:101F900001D1402034E05D4918392068884201D1E0
:101FA00040202DE05A4918392068884201D140204C
:101FB00026E0564948312068884201D140201FE080
:101FC000534960392068884202D14FF4803017E0CD
:101FD0004E492068884202D14FF4803010E04C49CD
:101FE0002068884202D14FF4803009E047496031CF
:101FF0002068884202D14FF4803001E04FF4800025
:102000004349A039C8605AE0414990392068884264
:1020100001D1012050E03D4930392068884201D18A
:10202000012049E03A4930392068884201D1012035
:1020300042E0364930312068884201D101203BE03E
:10204000334978392068884201D1402034E02F4953
:1020500018392068884201D140202DE02C491839D8
:102060002068884201D1402026E028494831206874
:10207000884201D140201FE025496039206888420C
:1020800002D14FF4803017E020492068884202D105
:102090004FF4803010E01E492068884202D14FF48E
:1020A000803009E0194960312068884202D14FF43C
:1020B000803001E04FF480001549A0398860206825
:1020C000006840F01600216808602068406940F010
:1020D000800021684861206C08B9A06C28B1206894
:1020E000006840F00800216808602068006840F03F
:1020F00001002168086006E000BF002084F8340079
:1021000000BF4FF002094846FFF732B84064024072
:10211000A0600240F8B50446002000908C4800689A
:102120004FF41651B0FBF1F7A56D2E6894F85C10D2
:1021300008208840304098B12068006800F0040012
:1021400070B12068006820F004002168086094F8ED
:102150005C1008208840A860606D40F00100606558
:1021600094F85C1001208840304068B120684069D4
:1021700000F0800040B194F85C1001208840A86015
:10218000606D40F00200606594F85C1004208840A7
:10219000304068B12068006800F0020040B194F857
:1021A0005C1004208840A860606D40F00400606509
:1021B00094F85C1010208840304078B320680068A4
:1021C00000F0080050B394F85C1010208840A8601C
:1021D0002068006800F4802080B12068006800F466
:1021E000002028B9206CC8B12046216C884715E032
:1021F000A06C98B12046A16C88470FE02068006869
:1022000000F4807028B92068006820F00800216878
:102210000860206C10B12046216C884794F85C104F
:10222000202088403040002865D02068006800F0F9
:10223000100000285FD094F85C1020208840A8602F
:1022400094F83500052828D12068006820F0160091
:10225000216808602068406920F08000216848619A
:10226000206C08B9A06C28B12068006820F0080034
:102270002168086094F85C103F208840A86000BF87
:10228000002084F8340000BF012084F83500206D60
:1022900010B12046216D8847F8BD2068006800F421
:1022A000802080B12068006800F4002028B9606CAC
:1022B00010B12046616C88471DE0E06BD8B1204624
:1022C000E16B884717E02068006800F4807068B907
:1022D0002068006820F010002168086000BF00201E
:1022E00084F8340000BF012084F83500E06B10B1A1
:1022F0002046E16B8847606D38B3606D00F00100E7
:10230000F0B1052084F835002068006820F0010055
:102310002168086000BF0098401C0090B84200D9B6
:1023200005E02068006800F001000028F3D100BF3C
:1023300000BF002084F8340000BF012084F835007D
:10234000E06C10B12046E16C884700BFA4E70000B4
:10235000540000202DE9F0410446002500F0BEFAAB
:10236000074614B90120BDE8F081606A00B100BFE2
:1023700000BF002084F8340000BF022084F835003C
:102380002068006820F00100216808600AE000F081
:10239000A5FAC01B052805D920206065032084F814
:1023A0003500E0E72068006800F001000028EED169
:1023B0002068056821480540D4E901010843E16827
:1023C00008432169084361690843A1690843E16939
:1023D0000843216A08430543606A042803D1D4E90D
:1023E0000B0108430543206805602068456925F016
:1023F0000705606A0543606A04280DD1A06A054399
:10240000E06A48B12046FEF74BF828B140206065ED
:10241000012084F83500A6E7206845612046FEF7D4
:1024200025F8064694F85C103F208840B0600020F4
:102430006065012084F83500002094E73F8010E0BB
:102440002DE9F04104460D4616461F464FF00008A0
:1024500000BF94F83400012802D10220BDE8F081C9
:10246000012084F8340000BF94F83500012811D110
:10247000022084F83500002060653B46324629463C
:102480002046FEF772F82068006840F001002168DD
:10249000086006E000BF002084F8340000BF4FF061
:1024A00002084046DAE7000070B5044600F016FA6C
:1024B00006462546681C10B104480078054400BF54
:1024C00000F00CFA801BA842FAD370BD5000002027
:1024D00000B587B0142102A8FDF7E2FE524800685B
:1024E00008B107B000BD01204F49086000BF4F4848
:1024F000006840F001004D4908600846006800F09F
:102500000100019000BF00BF00BF484808380068C4
:1025100040F020004549083908600846006800F08E
:102520002000019000BF00BF00BF0846006840F0D7
:10253000040008600846006800F00400019000BF35
:1025400000BF00BF0846006840F040000860084631
:10255000006800F04000019000BF00BF00BF0846C7
:10256000006840F0100008600846006800F01000A5
:10257000019000BF00BF00BF0846006840F008009F
:1025800008600846006800F00800019000BF00BF26
:102590004FF63F0002900220039000200490032099
:1025A00005900C20069002A9214800F075F80D2036
:1025B00002900220039000200490032005900C203C
:1025C000069002A91B4800F067F848F23710029005
:1025D0000220039000200490032005900C20069018
:1025E00002A9154800F058F84FF6837002900220B7
:1025F000039000200490032005900C20069002A96F
:102600000E4800F049F84CF203700290022003904B
:1026100000200490032005900C20069002A9084891
:1026200000F03AF800BF5CE7200000203838024094
:10263000001402400008024000180240001002404E
:10264000000C024010B50446B4F5805F03D0B4F529
:10265000005F0FD102E0FEF7D7F80BE04FF4005116
:10266000054800F025F920B94FF40041024800F078
:1026700027F900BF00BF10BD0004024010B504469A
:1026800004480068204020B1024804602046FFF75B
:10269000D9FF10BD143C0140F8B502460B4600219D
:1026A00000250024002000BFE4E0012606FA01F521
:1026B0001E6806EA0504AC4271D15E68012E08D09E
:1026C0005E68022E05D05E68112E02D05E68122E62
:1026D00013D190684F000326BE40B0434F00DE6820
:1026E000BE4030439060506801268E40B0431E7952
:1026F000C6F300168E4030435060D0684F0003266A
:10270000BE40B0434F009E68BE403043D0605E681C
:10271000022E02D05E68122E13D1CF0802F12006DD
:1027200056F827004E07F70E0F26BE40B0434F075E
:10273000FF0E1E69BE403043CF0802F1200646F866
:10274000270010684F000326BE40B0431E7906F0F4
:1027500003064F00BE40304310605E6806F08056AE
:10276000B6F1805FA8D100BF444E366846F480467B
:10277000424F3E603E46366806F48046009600BFF3
:1027800000BF3F4E8F0856F827008E07370F0F26E1
:10279000BE40B0433B4EB24202D100262EE068E07C
:1027A000394EB24201D1012628E0384EB24201D161
:1027B000022623E0364EB24201D103261EE0354EFA
:1027C000B24201D1042619E0334EB24201D10526AE
:1027D00014E0324EB24201D106260FE0304EB24232
:1027E00001D107260AE02F4EB24201D1082605E0AA
:1027F0002D4EB24201D1092600E00A268F073F0F75
:10280000BE4030431E4E8F0846F82700274E3068E2
:10281000A0435E6806F48036B6F5803F00D12043C1
:10282000224E3060361D3068A0435E6806F40036E4
:10283000B6F5003F00D120431C4E361D3060361DDA
:102840003068A0435E6806F48016B6F5801F00D19C
:102850002043164E08363060361D3068A0435E684F
:1028600006F40016B6F5001F00D120430F4E0C36BB
:102870003060491C1029FFF418AFF8BD44380240FD
:1028800008380140000002400004024000080240F5
:10289000000C0240001002400014024000180240E8
:1028A000001C02400020024000240240003C014085
:1028B000024613690B400BB1012000E00020704775
:1028C00042690A4012B10A04826100E081617047E6
:1028D0000AB1816101E00B0483617047014800681F
:1028E000704700004800002070B504460CB9012074
:1028F00070BD4CF6CC402168086045F25550216807
:102900000860D4E9001048602168A0688860FFF77B
:10291000E5FF054606E0FFF7E1FF401B302801D93F
:102920000320E5E72068C0680028F4D12068016929
:10293000E068814203D02168E068086103E04AF65C
:10294000AA20216808600020D2E701464AF6AA20A2
:102950000A6810600020704703480068034909783E
:1029600008440149086070474800002050000020DA
:1029700010B5032000F09CF8002000F005F800F0EE
:1029800029F8002010BD000070B504460E480078FC
:102990004FF47A71B1FBF0F00C490968B1FBF0F526
:1029A000284601F0EFF808B1012070BD102C07D2C5
:1029B00000222146501E00F03DF80548046001E069
:1029C0000120F2E70020F0E7500000205400002032
:1029D0004C00002008B500BF0D48006840F0805052
:1029E0000B4908600846006800F08050009000BF66
:1029F00000BF00BF081D006840F48040091D08604A
:102A00000846006800F48040009000BF00BF08BD89
:102A10004038024001460846002809DB00F01F0349
:102A200001229A4043099B0003F1E023C3F80021EF
:102A300000BF70472DE9F05F80460D46164600271F
:102A400003F034FA074639462A46334601F00700B8
:102A5000C0F1070ABAF1040F02D94FF0040A01E0ED
:102A6000C0F1070AD14600F1040ABAF1070F02D2F9
:102A70004FF0000A01E0A0F1030AD4464FF0010A2A
:102A80000AFA09FAAAF1010A0AEA020A0AFA0CFA8F
:102A90004FF0010B0BFA0CFBABF1010B0BEA030B34
:102AA0004AEA0B042146404603F008FABDE8F09FCD
:102AB00000BF00F00702064B19684FF6FF031940EC
:102AC000044B0B4343EA0221014B196000BF7047DE
:102AD0000CED00E00000FA0538B5002400BF2048E6
:102AE000006840F080501E4908600846006800F009
:102AF0008050009000BF00BF1A48006840F480304A
:102B000018490860FFF7EAFE044607E0FFF7E6FE13
:102B1000001BB0F57A7F01D9032038BD1148406809
:102B200000F48030B0F5803FF0D10E48006840F4EA
:102B300000300C490860FFF7D1FE044607E0FFF7BC
:102B4000CDFE001BB0F57A7F01D90320E5E70548EB
:102B5000406800F40030B0F5003FF0D10020DCE721
:102B600040380240007000400348006840F4807024
:102B70000149086070470000007000402DE9F843EB
:102B80000446002600250027A846A946207800F024
:102B9000010088B100BFFE48006820F40000FC4935
:102BA000086008460068616B0843F949086000BF87
:102BB000606B08B94FF00108206800F40020B0F500
:102BC000002F13D1F2488430006820F44010E16BEC
:102BD0000843EF4984310860E06BB0F5801F01D1F4
:102BE0004FF00108E06B08B94FF00109206800F4CC
:102BF0008010B0F5801F13D1E5488430006820F4C0
:102C00004000216C0843E24984310860206CB0F533
:102C1000800F01D14FF00108206C08B94FF0010975
:102C2000206800F08070B0F1807F01D14FF0010882
:102C3000207800F02000202870D100BFD448383020
:102C4000006840F08050D24938310860084600687A
:102C500000F08050009000BF00BFCE48006840F4F4
:102C60008070CC490860FFF739FE064607E0FFF7A1
:102C700035FE801B642802D90320BDE8F883C548CF
:102C8000006800F480700028F1D0C1486830006806
:102C900000F4407585B3208E00F44070A8422BD01C
:102CA000BB486830006820F44075B9486830006857
:102CB00040F48030B649683108600846006820F466
:102CC0008030086008460560006800F0010098B197
:102CD000FFF704FE064608E0FFF700FE801B41F206
:102CE0008831884201D90320C7E7A94868300068C5
:102CF000C0F340000028EFD000BF208E00F44070E9
:102D0000B0F5407F0BD1A248006820F4F810A24A29
:102D1000216B114008439E49086006E010E09C4882
:102D2000006820F4F8109A490860994868300068F3
:102D3000218EC1F30B01084395496831086000BF3B
:102D4000207800F01000102810D100BF9048843087
:102D5000006820F080708E49843108600846006861
:102D6000A16B08438A498431086000BF208800F4C1
:102D70008040B0F5804F09D185488830006820F444
:102D80004030616E0843824988310860208800F431
:102D90000040B0F5004F09D17D488830006820F42C
:102DA0004020A16E08437A4988310860206800F409
:102DB0008030B0F5803F09D175488830006820F434
:102DC0004010E16E0843724988310860206800F4C1
:102DD0000030B0F5003F09D16D488830006820F41C
:102DE0004000216F08436A4988310860207800F06C
:102DF0004000402809D166488830006820F0030070
:102E0000616C0843624988310860207800F08000D6
:102E1000802809D15E488830006820F00C00A16C41
:102E200008435B4988310860208800F48070B0F561
:102E3000807F09D156488830006820F03000E16C6E
:102E40000843534988310860208800F40070B0F5C9
:102E5000007F09D14E488830006820F0C000216D05
:102E600008434B4988310860208800F48060B0F541
:102E7000806F09D146488830006820F44070616D49
:102E80000843434988310860208800F40060B0F5A9
:102E9000006F09D13E488830006820F44060A16D81
:102EA00008433B4988310860208800F48050B0F521
:102EB000805F09D136488830006820F44050E16DC9
:102EC0000843334988310860208800F40050B0F589
:102ED000005F09D12E488830006820F44040216E00
:102EE00008432B4988310860206800F48000B0F561
:102EF000800F09D126488830006820F08060A16FDB
:102F00000843234988310860206800F40010B0F5B8
:102F1000001F0FD11E488830006820F00060E16F6C
:102F200008431B4988310860E06FB0F1006F01D1A0
:102F30004FF00109207800F00800082801D14FF077
:102F40000109206800F48020B0F5802F09D11048D5
:102F50008830006820F04070616F08430C49883168
:102F60000860206800F40000B0F5000F0AD108489E
:102F70008830006820F08050D4F88010084304495D
:102F800088310860206800F08060B0F1806F05E053
:102F90000838024000700040FFFCFF0F08D1CC4809
:102FA000006820F00050D4F884100843C849086035
:102FB000206800F00060B0F1006F0AD1C448001F23
:102FC000006820F00070D4F888100843C049091F39
:102FD0000860206800F08050B0F1805F0AD1BC48E2
:102FE000001F006820F08060D4F88C100843B849B6
:102FF000091F0860B8F1010F03D02068B0F1007F0D
:103000007ED1B3489038006820F08060B049903994
:103010000860FFF763FC064606E0FFF75FFC801BD5
:10302000642801D9032028E6A94890380068C0F335
:10303000C0600028F1D1207800F00100B8B1606BC9
:10304000A8B9A3480C380068C0F30145A0480C3863
:103050000068C0F303676068800140EA054040EA09
:103060000761207A41EA007099490C3908602068AC
:1030700000F40020B0F5002F03D1E06BB0F5801F05
:1030800009D0206800F48010B0F5801F24D1206C96
:10309000B0F5800F20D18E480C380068C0F3014590
:1030A0008B480C380068C0F302776068800140EA02
:1030B0000541207B41EA006040EA077084490C39F1
:1030C00008608348001F006820F01F00616A491EE5
:1030D00008437F49091F0860206800F08070B0F144
:1030E000807F17D17A480C380068C0F303657848B0
:1030F0000C380068C0F3027760688101208A00E024
:1031000036E041EA004040EA056040EA0770704955
:103110000C390860206800F00070B0F1007F0DD11C
:1031200060688101208A41EA0041207B41EA006118
:10313000207A41EA007066490C390860644890388A
:10314000006840F08060624990390860FFF7C6FB74
:10315000064606E0FFF7C2FB801B642801D9032066
:103160008BE55B4890380068C0F3C0600028F1D060
:10317000B9F1010F7ED156489038006820F0805098
:10318000534990390860FFF7A9FB064606E0FFF7B0
:10319000A5FB801B642801D903206EE54C489038BC
:1031A0000068C0F340700028F1D1206800F40020CE
:1031B000B0F5002F01D1E06B38B1206800F4801029
:1031C000B0F5801F22D1206C00BB41480838006850
:1031D000C0F301453E4808380068C0F302776069D3
:1031E000800140EA0541207E41EA006040EA077024
:1031F000374908390860081D006820F4F851A06AB2
:10320000401E41EA00203249091F0860206800F48E
:103210000010B0F5001F19D1E06FB0F1006F15D1AB
:103220002B4808380068C0F303652948083800684F
:10323000C0F3027760698101208C41EA004040EAD6
:10324000056040EA0770224908390860207800F0DC
:103250000800082820D11E4808380068C0F303651C
:103260001B4808380068C0F301476069800140EAE4
:10327000074000E02AE040EA0561207F41EA007053
:10328000134908390860081D006820F44030E16ADD
:1032900008430F49091F08600D489038006840F046
:1032A00080500B4990390860FFF718FB064606E08E
:1032B000FFF714FB801B642801D90320DDE40448D8
:1032C00090380068C0F340700028F1D00020D4E4AA
:1032D000903802407047000070B504460D46002645
:1032E0000CB9012070BD5C48006800F00F00A842D6
:1032F0000ED25948006820F00F0028435649086054
:103300000846006800F00F00A84201D00120E9E75C
:10331000207800F0020002281DD1207800F004007F
:10332000042805D14D48006840F4E0504B4908603E
:10333000207800F00800082805D14848006840F4CB
:103340006040464908604548006820F0F000A168E8
:10335000084342490860207800F0010090B360689B
:10336000012807D13D4808380068C0F34040A0B9A3
:103370000120B7E76068022807D13848083800689C
:10338000C0F3406048B90120ACE734480838006811
:10339000C0F3400008B90120A4E73048006820F0DD
:1033A0000300616808432D490860FFF797FA064655
:1033B00009E0FFF793FA801B41F28831884202D975
:1033C00003208FE707E02548006800F00C006168E3
:1033D000B0EB810FEDD12048006800F00F00A8424B
:1033E0000ED91D48006820F00F0028431A490860D4
:1033F0000846006800F00F00A84201D0012071E7E4
:10340000207800F00400042807D11448006820F454
:10341000E050E168084311490860207800F0080096
:10342000082808D10D48006820F46040216940EA6E
:10343000C1000A49086000F049F808490968C1F369
:103440000311074A515CC8400649086006480068F5
:10345000FFF79AFA002045E7003C02400838024096
:1034600052620008540000204C000020034800680D
:1034700040F4002001490860704700000038024015
:1034800001480068704700005400002000B5FFF7B5
:10349000F7FF04490968C1F38221034A515CC8401F
:1034A00000BD0000083802406262000800B5FFF766
:1034B000E7FF04490968C1F34231034A515CC8403F
:1034C00000BD000008380240626200082DE9F047A4
:1034D000002400250026A1462548006800F00C00C5
:1034E00020B1042805D008283AD105E0DFF88490FF
:1034F00039E0DFF8849036E01D48001F006800F0D6
:103500003F041B48001F006800F4800078B11A488F
:103510001749091F0968C1F38811A0FB0170014612
:10352000224600233846FCF783FE05460EE011488C
:103530000F49091F0968C1F38811A0FB01700146FA
:10354000224600233846FCF773FE05460848001F54
:103550000068C0F30140401C4600B5FBF6F902E0EC
:10356000DFF8109000BF00BF4846BDE8F0870000BC
:10357000083802400024F40040787D0110B5064868
:10358000006800F08000802805D1FFF7A3FE8020AE
:103590000149891C087010BD0C380240F8B504467A
:1035A00000270CB90120F8BD207800F001000028A8
:1035B00071D0F948006800F00C0004280DD0F648DE
:1035C000006800F00C00082813D1F348001F0068C1
:1035D00000F48000B0F5800F0BD1EF480838006888
:1035E000C0F34040002869D06068002866D10120FF
:1035F000D9E700BF6068B0F5803F08D1E6480838D9
:10360000006840F48030E449083908602EE06068C2
:1036100068B9E1480838006820F48030DE4908398C
:1036200008600846006820F4802008601EE060689A
:10363000B0F5A02F0DD1D8480838006840F480209C
:10364000D549083908600846006840F480300860B1
:103650000CE0D1480838006820F48030CE490839A1
:1036600008600846006820F48020086000BF606899
:1036700090B1FFF733F9054606E0FFF72FF9401B3D
:10368000642801D903208EE7C34808380068C0F3D6
:1036900040400028F1D011E0FFF720F9054606E090
:1036A000FFF71CF9401B642801D903207BE7BA48C7
:1036B00008380068C0F340400028F1D1207800F0BD
:1036C0000200022869D1B448006800F00C0058B12B
:1036D000B148006800F00C0008281CD1AE48001F5B
:1036E000006800F48000B0B9AB4808380068C0F347
:1036F000400020B1E068012801D0012053E7A6482E
:103700000838006820F0F800216940EAC100A249A9
:103710000839086041E0E06828B39F48083800682D
:1037200040F001009C4908390860FFF7D7F80546CA
:1037300006E0FFF7D3F8401B022801D9032032E747
:10374000954808380068C0F340000028F1D092483E
:103750000838006820F0F800216940EAC1008E496D
:103760000839086019E08C480838006820F001002A
:10377000894908390860FFF7B1F8054606E0FFF708
:10378000ADF8401B022801D903200CE78248083815
:103790000068C0F340000028F1D1207800F0080054
:1037A000082836D16069D0B17B486C30006840F0A1
:1037B000010079496C310860FFF790F8054606E092
:1037C000FFF78CF8401B022801D90320EBE6724872
:1037D0006C300068C0F340000028F1D019E06E485A
:1037E0006C30006820F001006B496C310860FFF715
:1037F00075F8054606E0FFF771F8401B022801D96D
:103800000320D0E664486C300068C0F34000002814
:10381000F1D1207800F00400042874D15E483830DB
:10382000006800F0805080B900BF5B483830006805
:1038300040F080505849383108600846006800F070
:103840008050009000BF00BF01275448006800F47A
:103850008070B0B95148006840F480704F490860EA
:10386000FFF73CF8054606E0FFF738F8401B6428F0
:1038700001D9032097E64948006800F480700028C9
:10388000F2D000BFA068012808D143486830006822
:1038900040F001004049683108602DE0A06868B937
:1038A0003D486830006820F001003B4968310860FD
:1038B0000846006820F0040008601DE0A0680528A4
:1038C0000DD135486830006840F004003249683155
:1038D00008600846006840F0010008600CE02E48CF
:1038E0006830006820F001002B4968310860084604
:1038F000006820F00400086000BFA068A8B1FEF7CF
:10390000EDFF054609E02EE0FEF7E8FF401B41F21F
:103910008831884201D9032045E61F486830006895
:10392000C0F340000028EFD013E0FEF7D7FF0546B4
:1039300008E0FEF7D3FF401B41F28831884201D9ED
:10394000032030E6144868300068C0F340000028C7
:10395000EFD1012F07D110483830006820F0805097
:103960000D4938310860A069002854D00A48006821
:1039700000F00C00082867D0A06902284CD1064846
:103980000838006820F08070034908390860FEF7A5
:10399000A5FF05460BE0000008380240007000401B
:1039A000FEF79CFF401B022801D90320FBE53F489E
:1039B0000068C0F340600028F2D1D4E90701084351
:1039C000616A40EA81110122A06AC2EB500041EA1B
:1039D00000412C20005D41EA00613020005D41EA99
:1039E00000703249091D0860081F006840F08070AF
:1039F000091F0860FEF772FF054606E0FEF76EFF3E
:103A0000401B022801D90320CDE528480068C0F3F7
:103A100040600028F2D047E02448006820F0807021
:103A200022490860FEF75AFF054606E0FEF756FFFA
:103A3000401B022801D90320B5E51C480068C0F3EB
:103A400040600028F2D12FE01848001D0668A069E8
:103A5000012827D006F48001E069814222D106F0D6
:103A60003F01206A81421DD147F6C0703040616A33
:103A7000B0EB811F16D106F440310122A06AC2EBDF
:103A80005000B1EB004F0DD106F070612C20005DAD
:103A9000B1EB006F06D106F0E0413020005DB1EBE4
:103AA000007F01D001207EE500207CE50038024047
:103AB00070B504460D460CB9012070BD94F82C0079
:103AC00028B9002084F82D00204600F011F80220CB
:103AD00084F82C00211D2068FCF7BDFE2946D4E99E
:103AE0000002FCF70DFF012084F82C000020E4E721
:103AF00010B50446FEF7ECFC10BD70B504460D464B
:103B0000164694F82C00022800D170BD022084F8DB
:103B10002C00324629462068FCF7D7FE2868022888
:103B200003D1052084F82C0002E0012084F82C0049
:103B30000020EAE770B504460D4694F82C000228F0
:103B400000D170BD022084F82C0029462068FCF7C3
:103B5000CFFE012084F82C000020F2E7042808D1D1
:103B60004FF0E021096941F004014FF0E0221161BA
:103B700007E04FF0E021096921F004014FF0E02255
:103B80001161704770B504462546681EB0F1807F0C
:103B900001D301200FE0681E4FF0E02148610F21A2
:103BA0004FF0FF3002F08AF900204FF0E0218861E9
:103BB00007200861002070BD0146486F20281AD1F7
:103BC00000BF91F87000012801D102207047012048
:103BD00081F8700000BF242048670868406840F4FE
:103BE00000000A6850602020486700BF002081F86C
:103BF000700000BFEAE70220E8E710B504460CB900
:103C0000012010BDA06900B100E000BF606F28B9BD
:103C1000002084F87000204600F02AF82420606715
:103C20002068006820F0010021680860204601F04B
:103C300083FD012800D1E4E7606A10B1204601F05D
:103C4000C8FC2068406820F49040216848602068E3
:103C5000806820F02A00216888602068006840F0B1
:103C6000010021680860204601F02FFDC9E700002F
:103C700010B586B00446142101A8FCF711FB744965
:103C80002068884235D100BF7248006840F4801037
:103C9000704908600846006800F48010009000BF7A
:103CA00000BF00BF6B481038006840F0020069494F
:103CB000103908600846006800F00200009000BF5C
:103CC00000BF4FF44070019002200290002003904A
:103CD000032004900720059001A95F48FEF7DCFC53
:103CE000012211463520FEF7A5FE3520FEF792FE93
:103CF000ACE05A492068884236D100BF5548001DC3
:103D0000006840F010005349091D0860084600682B
:103D100000F01000009000BF00BF00BF4D481038F9
:103D2000006840F002004B491039086008460068FE
:103D300000F00200009000BF00BFC02001900220F0
:103D4000029000200390032004900720059001A911
:103D50004148FEF7A1FC002202212520FEF76AFE61
:103D60002520FEF757FE71E03D492068884235D195
:103D700000BF3848006840F4002036490860084613
:103D8000006800F40020009000BF00BF00BF314871
:103D90001038006840F001002E49103908600846CC
:103DA000006800F00100009000BF00BF4FF4C05059
:103DB000019002200290002003900320049006202E
:103DC000059001A92748FEF767FC00220121342055
:103DD000FEF730FE3420FEF71DFE37E02249206852
:103DE000884233D100BF1B48006840F400301949B5
:103DF00008600846006800F40030009000BF00BF73
:103E000000BF14481038006840F001001149103913
:103E100008600846006800F00100009000BF00BF85
:103E20000C200190022002900020039003200490B7
:103E30000720059001A90B48FEF72EFC0222012164
:103E40002620FEF7F7FD2620FEF7E4FD06B010BDA4
:103E50000050004040380240000402400010014081
:103E6000004C0040000002400044004002685269DB
:103E700002F07F420A4303685A61704700BFFEE7C1
:103E800070B52DED028B00F041F9902000F0FEF8A6
:103E900000F092F9002000F0F9F800F08DF900F040
:103EA00035F9912000F0F2F800F086F9012000F0D9
:103EB000B5F80546002000F0B1F800EB052084B20B
:103EC00000F050F9641104F4806078B1C4F3090083
:103ED000C043401C404200EE100AB8EEC00BB4EEE6
:103EE000001B20EE010BB7EEC08B0BE000EE104A7A
:103EF000B8EE400AB7EEC00AB4EE001B20EE010B8C
:103F0000B7EEC08BB0EE480ABDEC028B70BD00006E
:103F100010B500224FF480611248FEF7D9FC114819
:103F2000006820F440000F4908600846006840F42B
:103F3000800008600022C9140A48FEF7C9FC02206C
:103F400002F04AF9012291020648FEF7C1FC022064
:103F500002F042F900224FF480610248FEF7B8FCFB
:103F600010BD00000004024000B587B000BF134838
:103F7000006840F00200114908600846006800F03F
:103F80000200019000BF00BF4FF44060029001208A
:103F90000390002004900320059002A90848FEF732
:103FA0007BFB0122D1020648FEF792FC012291021E
:103FB0000348FEF78DFC07B000BD0000303802401A
:103FC0000004024010B500224FF480611248FEF751
:103FD0007FFC1148006820F440000F490860084643
:103FE000006840F4800008600122C9140A48FEF706
:103FF0006FFC022002F0F0F8012291020648FEF761
:1040000067FC022002F0E8F800224FF480610248C9
:10401000FEF75EFC10BD00000004024070B50546CE
:1040200000241948006820F4400017490860084639
:104030000068086000261CE000224FF480611248EE
:10404000FEF746FC022002F0C7F8012291020E485A
:10405000FEF73EFC6006040E4FF400610A48FEF7CE
:1040600027FC08B1601CC4B2012002F0B5F8701C36
:10407000C6B2082EE0DB15B9FFF7A4FF01E0FFF799
:1040800047FF204670BD00000004024070B50446A2
:104090001D48006820F440001B490860084600687D
:1040A00040F480000860002209151748FEF710FC54
:1040B000002525E0E00928B10122D1021248FEF7CF
:1040C00007FC05E000224FF400610F48FEF700FCFA
:1040D0006006040E022002F07FF8012291020A48D5
:1040E000FEF7F6FB022002F077F800224FF4806121
:1040F0000548FEF7EDFB022002F06EF8681CC5B221
:10410000082DD7DB70BD00000004024010B5144834
:10411000006820F44000124908600846006840F436
:10412000800008600122C9140D48FEF7D1FB01226E
:1041300091020B48FEF7CCFB042002F04DF8002260
:104140004FF400610648FEF7C3FB042002F044F878
:1041500000224FF480610248FEF7BAFB10BD000058
:104160000004024010B51348006820F440001149D3
:1041700008600846006840F48000086000220915C5
:104180000C48FEF7A5FB00224FF400610948FEF73A
:104190009FFB042002F020F8012291020548FEF75F
:1041A00097FB042002F018F80122D1020148FEF723
:1041B0008FFB10BD0004024010B5002418480068B1
:1041C00020F4400016490860084600680860012293
:1041D000C9141348FEF77CFB012001F0FDFF01220A
:1041E00091020F48FEF774FB012001F0F5FF07E094
:1041F000601CC4B2FA2C03DDFFF7B4FF012010BD30
:104200004FF400610648FEF753FB0028F0D100226E
:104210004FF480610248FEF75BFB0020EFE70000EF
:104220000004024010B50248FEF78FFB10BD0000ED
:104230005808002070B504460D4606480649086037
:1042400008464460856040F6FF71C160FEF74CFB94
:1042500070BD0000003000405808002000B587B055
:10426000142102A8FCF71CF800BF1248006840F0B7
:104270000200104908600846006800F00200019042
:1042800000BF00BF4FF4005002900B480390012084
:1042900004900020059002A90848FEF7FDF90022CD
:1042A00011462820FEF7C6FB2820FEF7B3FB07B017
:1042B00000BD000030380240000021100004024020
:1042C00000B587B0142102A8FBF7EAFF00BF1D4824
:1042D000006840F004001B4908600846006800F0D0
:1042E0000400019000BF00BF00BF0846006840F016
:1042F000800008600846006800F08000019000BF60
:1043000000BF00BF0846006840F002000860084691
:10431000006800F00200019000BF00BF00224FF4CF
:1043200040410948FEF7D4FA4FF440400290012082
:10433000039004900020059002A90348FEF7ACF911
:1043400007B000BD303802400004024008B500BF8D
:104350003448006840F4001032490860084600689C
:1043600000F40010009000BF00BF2F482F490860E4
:104370004FF00060486040212C4881600021C160FE
:104380004FF480610161002141618161C1614FF49D
:104390000031016200214162FDF7DCFF08B1FCF74A
:1043A00059FA00BF21482249886608461F49886398
:1043B00000BF1D4818381F4908604FF00060486072
:1043C00000211C488160C1604FF4806101610021BF
:1043D000416181614FF48071C16149020162002134
:1043E0004162FDF7B7FF08B1FCF734FA00BF11488E
:1043F0000F49886608460F49886300BF82200090F5
:104400000B48006800F124010B4B0C4A0948FCF7EB
:104410009FFE002211461020FEF70CFB1020FEF735
:10442000F9FA08BD30380240A0600240640700205D
:10443000E4060020C4070020000100C0000000C006
:1044400010B586B00446142101A8FBF729FF00BF70
:104450002048006840F001001E49086008460068D6
:1044600000F00100009000BF00BF1020019001206B
:10447000029003900020049001A91748FEF70CF960
:10448000012210211448FEF723FA14481449086049
:104490000846446000218160C16001610C214161D6
:1044A00000218161C1610162FFF7A7FB08B1FCF740
:1044B000D1F9FFF74BFF0A480068806840F0C00060
:1044C0000749096888604FF4FA70FDF7EDFF06B000
:1044D00010BD00003038024000000240004400409F
:1044E000E406002000BFFEE72DE9FE4F8046894626
:1044F00017461D460C9C0026002002900190834622
:104500000090824676488079B8FBF0F080B2019046
:1045100073488079B9FBF0F01FFA80FB5846019987
:1045200001EBD1725210A1EB42020BEBD0735B1086
:10453000ABEB43039A4202D00120BDE8FE8F00207E
:104540006849087068490870087081F800804FEA6F
:10455000182008704FEA184008703520614908702B
:10456000002000F07BFB06460EB10220E5E70120AB
:1045700000F074FB06460EB10220DEE785205949A3
:10458000087059490F703812087081F800904FEA8E
:10459000192008704FEA194008701E2000F008F931
:1045A000E11704EBD1514912A4EB412189B100205C
:1045B000029009E015F8010B4FF000410870BDF8BA
:1045C0000800401C80B20290BDF80800A042F1DB58
:1045D0007AE02046E11704EBD151C1F34721009165
:1045E0003846F91707EBD151C1F3472A002634E0CA
:1045F0003E48006840F040004FF02041C1F8800084
:104600000020029009E015F8010B4FF000410870FE
:10461000BDF80800401C80B20290BDF80800B0F55B
:10462000007FF0DB00BF3148001D006800F0400053
:104630000028F8D02D481430016806EB0A022848FB
:104640001C3040F822104FF02040D0F8800020F0BD
:10465000400026490860701CC6B200988642C7DB3D
:104660001F484088103000EB8A0080B202901E2064
:1046700000F09EF885201B490870BDF808001A4913
:104680000870BDF80800001208701E2000F090F8B5
:1046900013481C3000EB8A05002002900FE0002632
:1046A00006E015F8010B4FF000410870701CC6B20F
:1046B000042EF6DBBDF80800401C80B20290BDF865
:1046C000081000988142EADB10200649087000F0CB
:1046D000A9FA402801D001202FE700202DE7000093
:1046E000A80800200000018000000280800000A0D7
:1046F0002DE9F04104460D464FF000080026002742
:1047000028488079B4FBF0F086B226488079B5FB62
:10471000F0F087B23846314606EBD1725210A6EB64
:10472000420207EBD0735B10A7EB43039A4202D01F
:104730000120BDE8F08100201B4908701B4908706A
:1047400008700C70200A0870200C0870352016497B
:104750000870002000F082FA8046B8F1000F01D006
:104760000220E6E7012000F079FA8046B8F1000F58
:1047700001D00220DDE785200B49087000200B499D
:10478000087008700D70280A0870280C0870102036
:104790000549087000F046FA402801D00120C8E71A
:1047A0000020C6E7A8080020000001800000028069
:1047B00001B502E00098401E009000980028F9D151
:1047C00008BD2DE9F74F81B0054616460020009040
:1047D000002481460120029900F038F807460020A5
:1047E000029900F033F882463146012000F02EF89D
:1047F00080463146002000F029F8834687EA0A0007
:1048000080EA080080EA0B00009040F6FF710098F3
:10481000884215D187EA08042046E11704EB51715C
:104820004FEAE109E11704EB5171C910A4EBC10291
:104830000121914015F80920514005F8091003E0C5
:10484000012004B0BDE8F08F0020FAE730B5024641
:104850000B460020002113E00C4601EBD4756D10CF
:10486000A1EB4505954209D123FA01F404F00104B6
:1048700024B14D100124AC400444A0B24C1CE1B260
:104880001829E9DB30BD000010B504461048006966
:104890001049884201D1E40105E00D4800690E4944
:1048A000884200D1A40160200C4908700C490C70AA
:1048B000200A0870200C0870D0200849087000F009
:1048C000B1F9402801D0012010BD0020FCE7000014
:1048D000A808002089260048569590DC0000018039
:1048E000000002802DE9FC5F81460F4615461C46FC
:1048F0000020019080468246002600907D49087085
:104900007D490F703812087081F800904FEA192025
:1049100008704FEA1940087030207649087000206E
:1049200000F09CF98046B8F1000F02D00220BDE8EB
:10493000FC9F012000F092F98046B8F1000F01D0F1
:104940000220F4E7E11704EBD1514912A4EB412115
:1049500089B10020019009E04FF00040007805F88F
:10496000010BBDF80400401C80B20190BDF80400AA
:10497000A042F1DBB5E02046E11704EBD151C1F3D1
:10498000472A3846F91707EBD151C1F34726AB4602
:104990004FF0000835E05948006840F040004FF003
:1049A0002041C1F880000020019009E04FF0004054
:1049B000007805F8010BBDF80400401C80B201909E
:1049C000BDF80400B0F5007FF0DB00BF4B48001DD0
:1049D000006800F040000028F8D048481430016812
:1049E00008EB0602464840F822104FF02040D0F86D
:1049F000800020F040004149086008F1010000F00B
:104A0000FF08D045C7DB3E481C384088103000EB1B
:104A1000860080B201901E20FFF7CAFE05203549AE
:104A20000870BDF8040034490870BDF80400001295
:104A30000870E0202F4908701E20FFF7B9FE3048AB
:104A4000203000EB86050020019009E04FF0004087
:104A5000007805F8010BBDF80400401C80B20190FD
:104A60004FEA8A00BDF804108842EFDC0020019074
:104A700033E0BDF8040081192148203050F821109E
:104A8000BDF8040082191E4850F8220081421FD050
:104A9000BDF8043003EB060C194B53F82C20BDF87D
:104AA000043003EB060C164B203353F82C10BDF8E2
:104AB00004304FF4007C0CFB03B0FFF782FE80460D
:104AC000B8F1000F02D00420009001E00320009014
:104AD000BDF80400401C80B20190BDF804005045B0
:104AE000C7DB00F09FF8402801D00120009000981B
:104AF0001DE700000000018000000280800000A08F
:104B0000C40800202DE9F04704460D461746984694
:104B1000DDF820A00026B14600201C4908701C4981
:104B20000D70281208700C70200A0870200C087094
:104B3000302016490870002000F090F88146B9F145
:104B4000000F02D00220BDE8F087012000F086F8B7
:104B50008146B9F1000F01D00220F4E7002607E0FA
:104B60004FF000400068B84200D003E0701C86B2ED
:104B70004645F5DB00BFAAF8006000F053F8402876
:104B800001D00120DFE70020DDE700000000018008
:104B9000000002802DE9F04707460C4690461D466E
:104BA0004FF0000900260A480079001BC6B2B54242
:104BB00000DD354606484088204481B22B464246F7
:104BC0003846FFF78FFE81464846BDE8F087000073
:104BD000A808002008B50020009070201049087037
:104BE0009DF80000401CC0B200909DF80000401CE1
:104BF000C0B200909DF80000401CC0B200909DF82B
:104C00000000401CC0B200909DF80000401CC0B2E3
:104C10000090C803007800909DF8000008BD0000D7
:104C20000000018008B50022002000900FE0FFF78F
:104C3000D1FF024602F0400000B109E00098401C9C
:104C4000009005490098884201D3022008BDEEE794
:104C500000BF4020FAE70000FFFF010001B582B06D
:104C6000002001900EE0BDF80400401C80B20190CD
:104C700040210848FDF71CFE9DF80810884201D12C
:104C800000200EBDBDF8040042F210718842EADB3C
:104C90000120F6E7000802402DE9F84780460E465D
:104CA00015461C4600200090002782468146802041
:104CB0005649087056490E703012087081F800800D
:104CC0004FEA182008704FEA184008701E20FFF7BE
:104CD0006FFDE11704EBD1514912A4EB412189B1D9
:104CE0000020009009E015F8010B4FF0004108701A
:104CF000BDF80000401C80B20090BDF80000A0424A
:104D0000F1DB76E02046E11704EBD151C1F3472AED
:104D10003046F11706EBD151C1F34729002733E0A4
:104D20003C48006840F040004FF02041C1F880004E
:104D30000020009009E015F8010B4FF000410870C9
:104D4000BDF80000401C80B20090BDF80000B0F536
:104D5000007FF0DB00BF2F48001D006800F040001E
:104D60000028F8D02B481430016807EB09022A48C4
:104D700040F822104FF02040D0F8800020F0400092
:104D800024490860781CC7B25745C9DB22481C3843
:104D90004088103000EB890080B200901E20FFF7A1
:104DA00007FD852019490870BDF8000018490870F2
:104DB000BDF80000001208701E20FFF7F9FC16482D
:104DC00000EB8905002000900FE0002706E015F8B1
:104DD000010B4FF000410870781CC7B2042FF6DBBE
:104DE000BDF80000401C80B20090BDF800005045A6
:104DF000EBDB102005490870FFF714FF402802D0B4
:104E00000120BDE8F8870020FBE7000000000180DA
:104E100000000280800000A0C40800202DE9F041BD
:104E200004460D4616461F464FF0000880201249E2
:104E3000087012490D70281208700C70200A087052
:104E4000200C08701E20FFF7B3FC00BF06E04FF0F7
:104E50000040066008F101001FFA80F8B845F6DB53
:104E6000102005490870FFF7DDFE402802D0012020
:104E7000BDE8F0810020FBE7000001800000028017
:104E80002DE9F04307460C4690461D464FF00009B9
:104E900000260A480079001BC6B2B54200DD35463F
:104EA00006484088204481B22B4642463846FFF7E8
:104EB000F3FE81464846BDE8F0830000A8080020C4
:104EC00010B5FEF75BFB10BD7047000010B5002366
:104ED000234C236000BF00BF00BFBFF34F8F00BF54
:104EE00000BF00BF231F1868C0F34E3100BFC0F3DE
:104EF000C90200BF43F6E07303EA41134FF0404498
:104F000004EA82742343174C236000BF00BF131EC2
:104F1000A2F10102EED10B1EA1F10101E7D100BF08
:104F200000BF00BFBFF34F8F00BF00BF00BF0C4BDF
:104F3000703B1B6843F48033094C703C236000BF16
:104F400000BF00BFBFF34F8F00BF00BF00BF00BF57
:104F500000BF00BFBFF36F8F00BF00BF00BF10BD19
:104F600084ED00E060EF00E000BF00BF00BFBFF3D2
:104F70004F8F00BF00BF00BF00BF00BF00BFBFF327
:104F80006F8F00BF00BF00BF00201449086000BF42
:104F900000BF00BFBFF34F8F00BF00BF00BF00BF07
:104FA00000BF00BFBFF36F8F00BF00BF00BF0C4842
:104FB000006840F400300A49086000BF00BF00BF2D
:104FC000BFF34F8F00BF00BF00BF00BF00BF00BFD7
:104FD000BFF36F8F00BF00BF00BF704750EF00E00E
:104FE00014ED00E000B587B01C216846FBF758F9C6
:104FF0001A481B4908600020486001211848816058
:105000000821C16010210161402141614FF4C0714C
:1050100081610021C1614FF4006101624900416278
:105020004900816202200090082001900620029031
:105030000390022004900590069069460848FEF708
:1050400037FD08B1FBF706FC054800F00BF840F20D
:1050500037310348FEF76EFD07B000BD400100A0E8
:105060002408002070B505460024002301221146C3
:10507000184600F019F84FF4FA70FDF715FA0023FE
:1050800001220221184600F00FF800230822032114
:10509000184600F009F842F23004234601220421A8
:1050A000002000F001F870BD2DE9FF4104460D46D7
:1050B00016461F464FF0000814B94FF0100803E0E1
:1050C000012C01D14FF0080802960095CDF804801C
:1050D00003974FF4805269460448FEF70EFD18B955
:1050E000012004B0BDE8F0810020FAE72408002088
:1050F000704710B5FDF730FC10BD000010B5FBF790
:1051000031F9FDF735FC00F025F8FFF7A7F8FFF7B8
:10511000D7F8D82001F056F8FFF764FF4FF461206C
:10512000FFF78EF9094800F061FE0948FBF734FAF1
:105130004FF46120FBF732FB4FF4FA710420FFF7C4
:1051400079F8FEF711FFFBF797FF10BD808D5B002C
:10515000C0C62D0000B5B7B034212AA8FBF7A0F8CF
:10516000142125A8FBF79CF8902101A8FBF798F8DB
:10517000FDF7FAFC00BF2C48006840F080502A4937
:1051800008600846006800F08050009000BF00BF33
:1051900000BF2648006840F44040244908600846A3
:1051A000006800F44040009000BF00BF01202A903A
:1051B00000042B900220309041052AA8C1611921DA
:1051C00001624FF4D871416202218162C162FEF72F
:1051D000E5F908B1FBF73EFBFDF77EFC08B1FBF7F4
:1051E00039FB0F20259002202690002027904FF4B5
:1051F000A05028904FF480502990072125A8FEF751
:105200006BF808B1FBF726FB4FF48060019000209B
:10521000169001A8FDF7B2FC08B1FBF71BFBFEF7E7
:1052200025F937B000BD0000403802400070004052
:105230000548006840F47000034908604FF00060C2
:10524000014980390860704788ED00E070B500249E
:1052500005E0E01C1F4909680855601C84B2B4F5DC
:10526000007FF6DB01235A0202211A480068FBF78F
:105270003BFE01235A0202211748FBF779FD054640
:105280001648007848B1164801781648FBF76AFAC4
:10529000002012490870124908601348007850B184
:1052A0001248008881B2124800F0E2FD00200E4949
:1052B00008700E4908600F48007850B10E48008809
:1052C00081B20E4800F058F900200A4908700A49D6
:1052D000086070BD000000205C000020100000206D
:1052E00014000020000500C0080000200C00002071
:1052F000000700C0180000201C0000205C020020F5
:1053000008B50021009129490968C969C1F3C02184
:10531000002949D04FF40061244A126811622449DF
:105320000968096821F00101214A126811602049C9
:1053300009684968C1F1FF001D4909681D4A914289
:1053400005D94FF400111B4A4C3A11601BE0184973
:105350000968194A914205D94FF40011154A503A8B
:10536000116010E012490968134A603A914205D968
:105370004FF40011104AB83AD16004E04FF4001124
:105380000D4AB83A9160FF21094A126851600B49F1
:10539000086001210A4A117005490968096841F04D
:1053A0000101034A1268116008BD0000A405002035
:1053B0008406002058640240B86002400C000020BF
:1053C0000800002008B500BF2C48006840F4001019
:1053D0002A4908600846006800F40010009000BFE9
:1053E00000BF2748274908604FF00060486040210F
:1053F000244881600021C1604FF480610161002177
:1054000041618161C1614FF400310162002141625B
:10541000FCF7A0FF08B1FBF71DFA00BF19481A49B5
:10542000886608461749886300BF1548A838174999
:105430000860C0054860002114488160C1604FF4D5
:1054400080610161002141618161C161016241624C
:10545000FCF780FF08B1FBF7FDF900BF0B480A49D4
:10546000C86608460949886300BF006800F1240146
:10547000C823074A0548FCF7E3FF08BD303802405F
:10548000B8600240A403002024030020040400208C
:105490005C02002008B50021009127490968C9690C
:1054A000C1F3C021002945D04FF40061224A12689F
:1054B000116222490968096821F001011F4A126836
:1054C00011601E4909684968C1F1C8001B49096893
:1054D0001B4A914204D92021194A4C3A116018E024
:1054E00016490968174A914204D92021144A503AB2
:1054F00011600EE011490968124A603A914204D9DC
:105500002021104AB83AD16003E020210D4AB83A70
:105510009160C821094A126851600B490860012155
:105520000A4A117005490968096841F00101034AF6
:105530001268116008BD000024030020040400204C
:1055400058640240B86002401C000020180000208F
:1055500010B514210748FEF789FC0648FEF72CFB1E
:1055600004480068006840F08060024909680860EB
:1055700010BD00002403002070B504460D462A46E5
:105580002146024800F004F870BD0000240300200A
:1055900010B5034601B10AB9002010BDA3F8502090
:1055A000A3F852200FE008781C68A06200BF1868BA
:1055B000C069C0F3C0100028F9D0491CB3F85200EC
:1055C000401EA3F85200B3F852000028EBDC012083
:1055D000E3E790F8241001F0010139B1016849684E
:1055E00021F40031826A11430268516090F824105E
:1055F00001F00201022907D10168496821F48031D4
:10560000C26A11430268516090F8241001F004014D
:10561000042907D10168496821F48021026B1143F4
:105620000268516090F8241001F00801082907D1A0
:105630000168496821F40041426B114302685160DE
:1056400090F8241001F01001102907D10168896831
:1056500021F48051826B11430268916090F824100C
:1056600001F02001202907D10168896821F4005147
:10567000C26B11430268916090F8241001F0400160
:10568000402913D10168496821F48011026C11434B
:1056900002685160016CB1F5801F07D1016849684B
:1056A00021F4C001426C11430268516090F824104B
:1056B00001F08001802907D10168496821F40021A7
:1056C000826C114302685160704738B5044600206F
:1056D000E067FDF703F905462068006800F0080060
:1056E00008280CD16FF07E402B4600224FF40011A9
:1056F0000090204600F0F4F908B1032038BD20687E
:10570000006800F0040004280CD16FF07E402B46A6
:1057100000224FF480010090204600F0E1F908B12A
:105720000320EBE720206067A06700BF002084F81B
:10573000700000BF00BFE1E72DE9F04704460027F5
:10574000BA462169A068084361690843E16940EAF3
:10575000010820680068D649084040EA080021682E
:1057600008602068406820F44050E16808432168E0
:105770004860D4F81880206A40EA080820688068E9
:1057800020F4306040EA08002168886000BFC94901
:105790002068884216D1C848006800F0030030B184
:1057A000012808D0022804D0032808D105E00125EB
:1057B00007E0022505E0042503E0082501E01025A7
:1057C00000BFC9E0BD492068884216D1BA480068C8
:1057D00000F00C0030B1042808D0082804D00C28B0
:1057E00008D105E0002507E0022505E0042503E0D7
:1057F000082501E0102500BFAEE0B14920688842CD
:1058000016D1AD48006800F0300030B1102808D043
:10581000202804D0302808D105E0002507E0022523
:1058200005E0042503E0082501E0102500BF93E012
:10583000A4492068884216D19F48006800F0C00043
:1058400030B1402808D0802804D0C02808D105E015
:10585000002507E0022505E0042503E0082501E016
:10586000102500BF78E098492068884219D19248F5
:10587000006800F4407048B1B0F5807F0AD0B0F500
:10588000007F05D0B0F5407F08D105E0002507E096
:10589000022505E0042503E0082501E0102500BFEE
:1058A0005AE08A492068884219D18348006800F488
:1058B000406048B1B0F5806F0AD0B0F5006F05D0F8
:1058C000B0F5406F08D105E0012507E0022505E0AD
:1058D000042503E0082501E0102500BF3CE07C49D9
:1058E0002068884219D17448006800F4405048B1DB
:1058F000B0F5805F0AD0B0F5005F05D0B0F5405F2D
:1059000008D105E0002507E0022505E0042503E0B5
:10591000082501E0102500BF1EE06E49206888427E
:1059200019D16548006800F4404048B1B0F5804F97
:105930000AD0B0F5004F05D0B0F5404F08D105E0D2
:10594000002507E0022505E0042503E0082501E025
:10595000102500BF00E0102500BFE069B0F5004F42
:1059600054D1092D3AD2DFE805F005101B3924394E
:1059700039392F00FDF78AFD06467000616800EB9B
:105980005100B0FBF1F087B22BE0FDF78FFD06462A
:105990007000616800EB5100B0FBF1F087B220E0CD
:1059A0004D49606801EB50006168B0FBF1F087B2CF
:1059B00017E0FDF78BFD06467000616800EB5100B3
:1059C000B0FBF1F087B20CE04FF48031606801EB7E
:1059D00050006168B0FBF1F087B202E04FF0010ABD
:1059E00000BF00BF102F0ED3B7F5803F0BD24FF68C
:1059F000F07007EA0009C7F3420049EA000920688D
:105A0000C0F80C904DE04FF0010A4AE0092D3AD25F
:105A1000DFE805F005101B39243939392F00FDF76F
:105A200035FD0646606806EB50006168B0FBF1F09A
:105A300087B22BE0FDF73AFD0646606806EB5000A2
:105A40006168B0FBF1F087B220E02449606801EBA7
:105A500050006168B0FBF1F087B217E0FDF736FD4A
:105A60000646606806EB50006168B0FBF1F087B253
:105A70000CE04FF40041606801EB50006168B0FB3E
:105A8000F1F087B202E04FF0010A00BF00BF102F13
:105A900005D3B7F5803F02D22068C76001E04FF020
:105AA000010A0020206660665046BDE8F0870000CD
:105AB000F369FFEF001001409038024000440040BD
:105AC00000480040004C00400050004000140140DD
:105AD00000780040007C00400048E8010024F40009
